{
  "_format": "hh-sol-artifact-1",
  "contractName": "NFT",
  "sourceName": "contracts/NFT.sol",
  "abi": [
    {
      "inputs": [
        {
          "internalType": "address",
          "name": "marketplaceAddress",
          "type": "address"
        }
      ],
      "stateMutability": "nonpayable",
      "type": "constructor"
    },
    {
      "anonymous": false,
      "inputs": [
        {
          "indexed": true,
          "internalType": "address",
          "name": "owner",
          "type": "address"
        },
        {
          "indexed": true,
          "internalType": "address",
          "name": "approved",
          "type": "address"
        },
        {
          "indexed": true,
          "internalType": "uint256",
          "name": "tokenId",
          "type": "uint256"
        }
      ],
      "name": "Approval",
      "type": "event"
    },
    {
      "anonymous": false,
      "inputs": [
        {
          "indexed": true,
          "internalType": "address",
          "name": "owner",
          "type": "address"
        },
        {
          "indexed": true,
          "internalType": "address",
          "name": "operator",
          "type": "address"
        },
        {
          "indexed": false,
          "internalType": "bool",
          "name": "approved",
          "type": "bool"
        }
      ],
      "name": "ApprovalForAll",
      "type": "event"
    },
    {
      "anonymous": false,
      "inputs": [
        {
          "indexed": true,
          "internalType": "address",
          "name": "from",
          "type": "address"
        },
        {
          "indexed": true,
          "internalType": "address",
          "name": "to",
          "type": "address"
        },
        {
          "indexed": true,
          "internalType": "uint256",
          "name": "tokenId",
          "type": "uint256"
        }
      ],
      "name": "Transfer",
      "type": "event"
    },
    {
      "inputs": [
        {
          "internalType": "address",
          "name": "to",
          "type": "address"
        },
        {
          "internalType": "uint256",
          "name": "tokenId",
          "type": "uint256"
        }
      ],
      "name": "approve",
      "outputs": [],
      "stateMutability": "nonpayable",
      "type": "function"
    },
    {
      "inputs": [
        {
          "internalType": "address",
          "name": "owner",
          "type": "address"
        }
      ],
      "name": "balanceOf",
      "outputs": [
        {
          "internalType": "uint256",
          "name": "",
          "type": "uint256"
        }
      ],
      "stateMutability": "view",
      "type": "function"
    },
    {
      "inputs": [
        {
          "internalType": "string",
          "name": "tokenURI",
          "type": "string"
        }
      ],
      "name": "createToken",
      "outputs": [
        {
          "internalType": "uint256",
          "name": "",
          "type": "uint256"
        }
      ],
      "stateMutability": "nonpayable",
      "type": "function"
    },
    {
      "inputs": [
        {
          "internalType": "uint256",
          "name": "tokenId",
          "type": "uint256"
        }
      ],
      "name": "getApproved",
      "outputs": [
        {
          "internalType": "address",
          "name": "",
          "type": "address"
        }
      ],
      "stateMutability": "view",
      "type": "function"
    },
    {
      "inputs": [
        {
          "internalType": "address",
          "name": "owner",
          "type": "address"
        },
        {
          "internalType": "address",
          "name": "operator",
          "type": "address"
        }
      ],
      "name": "isApprovedForAll",
      "outputs": [
        {
          "internalType": "bool",
          "name": "",
          "type": "bool"
        }
      ],
      "stateMutability": "view",
      "type": "function"
    },
    {
      "inputs": [],
      "name": "name",
      "outputs": [
        {
          "internalType": "string",
          "name": "",
          "type": "string"
        }
      ],
      "stateMutability": "view",
      "type": "function"
    },
    {
      "inputs": [
        {
          "internalType": "uint256",
          "name": "tokenId",
          "type": "uint256"
        }
      ],
      "name": "ownerOf",
      "outputs": [
        {
          "internalType": "address",
          "name": "",
          "type": "address"
        }
      ],
      "stateMutability": "view",
      "type": "function"
    },
    {
      "inputs": [
        {
          "internalType": "address",
          "name": "from",
          "type": "address"
        },
        {
          "internalType": "address",
          "name": "to",
          "type": "address"
        },
        {
          "internalType": "uint256",
          "name": "tokenId",
          "type": "uint256"
        }
      ],
      "name": "safeTransferFrom",
      "outputs": [],
      "stateMutability": "nonpayable",
      "type": "function"
    },
    {
      "inputs": [
        {
          "internalType": "address",
          "name": "from",
          "type": "address"
        },
        {
          "internalType": "address",
          "name": "to",
          "type": "address"
        },
        {
          "internalType": "uint256",
          "name": "tokenId",
          "type": "uint256"
        },
        {
          "internalType": "bytes",
          "name": "data",
          "type": "bytes"
        }
      ],
      "name": "safeTransferFrom",
      "outputs": [],
      "stateMutability": "nonpayable",
      "type": "function"
    },
    {
      "inputs": [
        {
          "internalType": "address",
          "name": "operator",
          "type": "address"
        },
        {
          "internalType": "bool",
          "name": "approved",
          "type": "bool"
        }
      ],
      "name": "setApprovalForAll",
      "outputs": [],
      "stateMutability": "nonpayable",
      "type": "function"
    },
    {
      "inputs": [
        {
          "internalType": "bytes4",
          "name": "interfaceId",
          "type": "bytes4"
        }
      ],
      "name": "supportsInterface",
      "outputs": [
        {
          "internalType": "bool",
          "name": "",
          "type": "bool"
        }
      ],
      "stateMutability": "view",
      "type": "function"
    },
    {
      "inputs": [],
      "name": "symbol",
      "outputs": [
        {
          "internalType": "string",
          "name": "",
          "type": "string"
        }
      ],
      "stateMutability": "view",
      "type": "function"
    },
    {
      "inputs": [
        {
          "internalType": "uint256",
          "name": "tokenId",
          "type": "uint256"
        }
      ],
      "name": "tokenURI",
      "outputs": [
        {
          "internalType": "string",
          "name": "",
          "type": "string"
        }
      ],
      "stateMutability": "view",
      "type": "function"
    },
    {
      "inputs": [
        {
          "internalType": "address",
          "name": "from",
          "type": "address"
        },
        {
          "internalType": "address",
          "name": "to",
          "type": "address"
        },
        {
          "internalType": "uint256",
          "name": "tokenId",
          "type": "uint256"
        }
      ],
      "name": "transferFrom",
      "outputs": [],
      "stateMutability": "nonpayable",
      "type": "function"
    },
    {
      "inputs": [],
      "name": "userApproval",
      "outputs": [],
      "stateMutability": "nonpayable",
      "type": "function"
    }
  ],
  "bytecode": "0x60806040523480156200001157600080fd5b50604051620018ab380380620018ab833981016040819052620000349162000164565b60408051808201825260078152661088158815081560ca1b60208083019182528351808501909452600384526210959560ea1b9084015281519192916200007e91600091620000be565b50805162000094906001906020840190620000be565b5050600880546001600160a01b0319166001600160a01b03939093169290921790915550620001d1565b828054620000cc9062000194565b90600052602060002090601f016020900481019282620000f057600085556200013b565b82601f106200010b57805160ff19168380011785556200013b565b828001600101855582156200013b579182015b828111156200013b5782518255916020019190600101906200011e565b50620001499291506200014d565b5090565b5b808211156200014957600081556001016200014e565b60006020828403121562000176578081fd5b81516001600160a01b03811681146200018d578182fd5b9392505050565b600181811c90821680620001a957607f821691505b60208210811415620001cb57634e487b7160e01b600052602260045260246000fd5b50919050565b6116ca80620001e16000396000f3fe608060405234801561001057600080fd5b50600436106100f55760003560e01c80636352211e11610097578063b88d4fde11610066578063b88d4fde146101ff578063c87b56dd14610212578063cf2f1ea714610225578063e985e9c51461022d57600080fd5b80636352211e146101be57806370a08231146101d157806395d89b41146101e4578063a22cb465146101ec57600080fd5b8063095ea7b3116100d3578063095ea7b31461016257806323b872dd1461017757806342842e0e1461018a57806345576f941461019d57600080fd5b806301ffc9a7146100fa57806306fdde0314610122578063081812fc14610137575b600080fd5b61010d610108366004611397565b610269565b60405190151581526020015b60405180910390f35b61012a6102bb565b60405161011991906114c5565b61014a610145366004611415565b61034d565b6040516001600160a01b039091168152602001610119565b61017561017036600461136e565b610374565b005b610175610185366004611280565b61048f565b610175610198366004611280565b6104c0565b6101b06101ab3660046113cf565b6104db565b604051908152602001610119565b61014a6101cc366004611415565b610523565b6101b06101df366004611234565b610583565b61012a610609565b6101756101fa366004611334565b610618565b61017561020d3660046112bb565b610627565b61012a610220366004611415565b61065f565b610175610770565b61010d61023b36600461124e565b6001600160a01b03918216600090815260056020908152604080832093909416825291909152205460ff1690565b60006001600160e01b031982166380ac58cd60e01b148061029a57506001600160e01b03198216635b5e139f60e01b145b806102b557506301ffc9a760e01b6001600160e01b03198316145b92915050565b6060600080546102ca90611617565b80601f01602080910402602001604051908101604052809291908181526020018280546102f690611617565b80156103435780601f1061031857610100808354040283529160200191610343565b820191906000526020600020905b81548152906001019060200180831161032657829003601f168201915b5050505050905090565b600061035882610789565b506000908152600460205260409020546001600160a01b031690565b600061037f82610523565b9050806001600160a01b0316836001600160a01b031614156103f25760405162461bcd60e51b815260206004820152602160248201527f4552433732313a20617070726f76616c20746f2063757272656e74206f776e656044820152603960f91b60648201526084015b60405180910390fd5b336001600160a01b038216148061040e575061040e813361023b565b6104805760405162461bcd60e51b815260206004820152603d60248201527f4552433732313a20617070726f76652063616c6c6572206973206e6f7420746f60448201527f6b656e206f776e6572206f7220617070726f76656420666f7220616c6c00000060648201526084016103e9565b61048a83836107eb565b505050565b6104993382610859565b6104b55760405162461bcd60e51b81526004016103e9906114d8565b61048a8383836108d7565b61048a83838360405180602001604052806000815250610627565b60006104eb600780546001019055565b60006104f660075490565b90506105023382610a48565b61050c8184610be1565b6008546102b5906001600160a01b03166001610618565b6000818152600260205260408120546001600160a01b0316806102b55760405162461bcd60e51b8152602060048201526018602482015277115490cdcc8c4e881a5b9d985b1a59081d1bdad95b88125160421b60448201526064016103e9565b60006001600160a01b0382166105ed5760405162461bcd60e51b815260206004820152602960248201527f4552433732313a2061646472657373207a65726f206973206e6f7420612076616044820152683634b21037bbb732b960b91b60648201526084016103e9565b506001600160a01b031660009081526003602052604090205490565b6060600180546102ca90611617565b610623338383610c7b565b5050565b6106313383610859565b61064d5760405162461bcd60e51b81526004016103e9906114d8565b61065984848484610d4a565b50505050565b606061066a82610789565b6000828152600660205260408120805461068390611617565b80601f01602080910402602001604051908101604052809291908181526020018280546106af90611617565b80156106fc5780601f106106d1576101008083540402835291602001916106fc565b820191906000526020600020905b8154815290600101906020018083116106df57829003601f168201915b50505050509050600061071a60408051602081019091526000815290565b905080516000141561072d575092915050565b81511561075f578082604051602001610747929190611459565b60405160208183030381529060405292505050919050565b61076884610d7d565b949350505050565b600854610787906001600160a01b03166001610618565b565b6000818152600260205260409020546001600160a01b03166107e85760405162461bcd60e51b8152602060048201526018602482015277115490cdcc8c4e881a5b9d985b1a59081d1bdad95b88125160421b60448201526064016103e9565b50565b600081815260046020526040902080546001600160a01b0319166001600160a01b038416908117909155819061082082610523565b6001600160a01b03167f8c5be1e5ebec7d5bd14f71427d1e84f3dd0314c0f7b2291e5b200ac8c7c3b92560405160405180910390a45050565b60008061086583610523565b9050806001600160a01b0316846001600160a01b031614806108ac57506001600160a01b0380821660009081526005602090815260408083209388168352929052205460ff165b806107685750836001600160a01b03166108c58461034d565b6001600160a01b031614949350505050565b826001600160a01b03166108ea82610523565b6001600160a01b0316146109105760405162461bcd60e51b81526004016103e990611577565b6001600160a01b0382166109725760405162461bcd60e51b8152602060048201526024808201527f4552433732313a207472616e7366657220746f20746865207a65726f206164646044820152637265737360e01b60648201526084016103e9565b61097f8383836001610df1565b826001600160a01b031661099282610523565b6001600160a01b0316146109b85760405162461bcd60e51b81526004016103e990611577565b600081815260046020908152604080832080546001600160a01b03199081169091556001600160a01b0387811680865260038552838620805460001901905590871680865283862080546001019055868652600290945282852080549092168417909155905184937fddf252ad1be2c89b69c2b068fc378daa952ba7f163c4a11628f55a4df523b3ef91a4505050565b6001600160a01b038216610a9e5760405162461bcd60e51b815260206004820181905260248201527f4552433732313a206d696e7420746f20746865207a65726f206164647265737360448201526064016103e9565b6000818152600260205260409020546001600160a01b031615610b035760405162461bcd60e51b815260206004820152601c60248201527f4552433732313a20746f6b656e20616c7265616479206d696e7465640000000060448201526064016103e9565b610b11600083836001610df1565b6000818152600260205260409020546001600160a01b031615610b765760405162461bcd60e51b815260206004820152601c60248201527f4552433732313a20746f6b656e20616c7265616479206d696e7465640000000060448201526064016103e9565b6001600160a01b038216600081815260036020908152604080832080546001019055848352600290915280822080546001600160a01b0319168417905551839291907fddf252ad1be2c89b69c2b068fc378daa952ba7f163c4a11628f55a4df523b3ef908290a45050565b6000828152600260205260409020546001600160a01b0316610c5c5760405162461bcd60e51b815260206004820152602e60248201527f45524337323155524953746f726167653a2055524920736574206f66206e6f6e60448201526d32bc34b9ba32b73a103a37b5b2b760911b60648201526084016103e9565b6000828152600660209081526040909120825161048a92840190611109565b816001600160a01b0316836001600160a01b03161415610cdd5760405162461bcd60e51b815260206004820152601960248201527f4552433732313a20617070726f766520746f2063616c6c65720000000000000060448201526064016103e9565b6001600160a01b03838116600081815260056020908152604080832094871680845294825291829020805460ff191686151590811790915591519182527f17307eab39ab6107e8899845ad3d59bd9653f200f220920489ca2b5937696c31910160405180910390a3505050565b610d558484846108d7565b610d6184848484610e79565b6106595760405162461bcd60e51b81526004016103e990611525565b6060610d8882610789565b6000610d9f60408051602081019091526000815290565b90506000815111610dbf5760405180602001604052806000815250610dea565b80610dc984610f86565b604051602001610dda929190611459565b6040516020818303038152906040525b9392505050565b6001811115610659576001600160a01b03841615610e37576001600160a01b03841660009081526003602052604081208054839290610e319084906115d4565b90915550505b6001600160a01b03831615610659576001600160a01b03831660009081526003602052604081208054839290610e6e9084906115bc565b909155505050505050565b60006001600160a01b0384163b15610f7b57604051630a85bd0160e11b81526001600160a01b0385169063150b7a0290610ebd903390899088908890600401611488565b602060405180830381600087803b158015610ed757600080fd5b505af1925050508015610f07575060408051601f3d908101601f19168201909252610f04918101906113b3565b60015b610f61573d808015610f35576040519150601f19603f3d011682016040523d82523d6000602084013e610f3a565b606091505b508051610f595760405162461bcd60e51b81526004016103e990611525565b805181602001fd5b6001600160e01b031916630a85bd0160e11b149050610768565b506001949350505050565b60606000610f9383611031565b600101905060008167ffffffffffffffff811115610fc157634e487b7160e01b600052604160045260246000fd5b6040519080825280601f01601f191660200182016040528015610feb576020820181803683370190505b5090508181016020015b600019016f181899199a1a9b1b9c1cb0b131b232b360811b600a86061a8153600a850494508461102457611029565b610ff5565b509392505050565b60008072184f03e93ff9f4daa797ed6e38ed64bf6a1f0160401b83106110705772184f03e93ff9f4daa797ed6e38ed64bf6a1f0160401b830492506040015b6d04ee2d6d415b85acef8100000000831061109c576d04ee2d6d415b85acef8100000000830492506020015b662386f26fc1000083106110ba57662386f26fc10000830492506010015b6305f5e10083106110d2576305f5e100830492506008015b61271083106110e657612710830492506004015b606483106110f8576064830492506002015b600a83106102b55760010192915050565b82805461111590611617565b90600052602060002090601f016020900481019282611137576000855561117d565b82601f1061115057805160ff191683800117855561117d565b8280016001018555821561117d579182015b8281111561117d578251825591602001919060010190611162565b5061118992915061118d565b5090565b5b80821115611189576000815560010161118e565b600067ffffffffffffffff808411156111bd576111bd611668565b604051601f8501601f19908116603f011681019082821181831017156111e5576111e5611668565b816040528093508581528686860111156111fe57600080fd5b858560208301376000602087830101525050509392505050565b80356001600160a01b038116811461122f57600080fd5b919050565b600060208284031215611245578081fd5b610dea82611218565b60008060408385031215611260578081fd5b61126983611218565b915061127760208401611218565b90509250929050565b600080600060608486031215611294578081fd5b61129d84611218565b92506112ab60208501611218565b9150604084013590509250925092565b600080600080608085870312156112d0578081fd5b6112d985611218565b93506112e760208601611218565b925060408501359150606085013567ffffffffffffffff811115611309578182fd5b8501601f81018713611319578182fd5b611328878235602084016111a2565b91505092959194509250565b60008060408385031215611346578182fd5b61134f83611218565b915060208301358015158114611363578182fd5b809150509250929050565b60008060408385031215611380578182fd5b61138983611218565b946020939093013593505050565b6000602082840312156113a8578081fd5b8135610dea8161167e565b6000602082840312156113c4578081fd5b8151610dea8161167e565b6000602082840312156113e0578081fd5b813567ffffffffffffffff8111156113f6578182fd5b8201601f81018413611406578182fd5b610768848235602084016111a2565b600060208284031215611426578081fd5b5035919050565b600081518084526114458160208601602086016115eb565b601f01601f19169290920160200192915050565b6000835161146b8184602088016115eb565b83519083019061147f8183602088016115eb565b01949350505050565b6001600160a01b03858116825284166020820152604081018390526080606082018190526000906114bb9083018461142d565b9695505050505050565b602081526000610dea602083018461142d565b6020808252602d908201527f4552433732313a2063616c6c6572206973206e6f7420746f6b656e206f776e6560408201526c1c881bdc88185c1c1c9bdd9959609a1b606082015260800190565b60208082526032908201527f4552433732313a207472616e7366657220746f206e6f6e20455243373231526560408201527131b2b4bb32b91034b6b83632b6b2b73a32b960711b606082015260800190565b60208082526025908201527f4552433732313a207472616e736665722066726f6d20696e636f72726563742060408201526437bbb732b960d91b606082015260800190565b600082198211156115cf576115cf611652565b500190565b6000828210156115e6576115e6611652565b500390565b60005b838110156116065781810151838201526020016115ee565b838111156106595750506000910152565b600181811c9082168061162b57607f821691505b6020821081141561164c57634e487b7160e01b600052602260045260246000fd5b50919050565b634e487b7160e01b600052601160045260246000fd5b634e487b7160e01b600052604160045260246000fd5b6001600160e01b0319811681146107e857600080fdfea26469706673582212200afef1728a5e25efb97618b1f66e126ba88921e8fe6a9d5703cd9b81f4d8224d64736f6c63430008040033",
  "linkReferences": {},
  "deployedLinkReferences": {}
}