{
  "_format": "hh-sol-artifact-1",
  "contractName": "NFTMarketV2",
  "sourceName": "contracts/MarketV2.sol",
  "abi": [
    {
      "anonymous": false,
      "inputs": [
        {
          "indexed": false,
          "internalType": "uint8",
          "name": "version",
          "type": "uint8"
        }
      ],
      "name": "Initialized",
      "type": "event"
    },
    {
      "anonymous": false,
      "inputs": [
        {
          "indexed": true,
          "internalType": "uint256",
          "name": "itemId",
          "type": "uint256"
        },
        {
          "indexed": true,
          "internalType": "address",
          "name": "nftContract",
          "type": "address"
        },
        {
          "indexed": true,
          "internalType": "uint256",
          "name": "tokenId",
          "type": "uint256"
        },
        {
          "indexed": false,
          "internalType": "address",
          "name": "seller",
          "type": "address"
        },
        {
          "indexed": false,
          "internalType": "address",
          "name": "owner",
          "type": "address"
        },
        {
          "indexed": false,
          "internalType": "uint256",
          "name": "price",
          "type": "uint256"
        },
        {
          "indexed": false,
          "internalType": "bool",
          "name": "sold",
          "type": "bool"
        },
        {
          "indexed": false,
          "internalType": "bool",
          "name": "isEth",
          "type": "bool"
        }
      ],
      "name": "MarketItemCreated",
      "type": "event"
    },
    {
      "inputs": [
        {
          "internalType": "address",
          "name": "nftContract",
          "type": "address"
        },
        {
          "internalType": "uint256",
          "name": "tokenId",
          "type": "uint256"
        },
        {
          "internalType": "uint256",
          "name": "price",
          "type": "uint256"
        }
      ],
      "name": "createMarketItem",
      "outputs": [],
      "stateMutability": "payable",
      "type": "function"
    },
    {
      "inputs": [
        {
          "internalType": "address",
          "name": "nftContract",
          "type": "address"
        },
        {
          "internalType": "uint256",
          "name": "tokenId",
          "type": "uint256"
        },
        {
          "internalType": "uint256",
          "name": "price",
          "type": "uint256"
        }
      ],
      "name": "createMarketItemByHSN",
      "outputs": [],
      "stateMutability": "payable",
      "type": "function"
    },
    {
      "inputs": [
        {
          "internalType": "address",
          "name": "nftContract",
          "type": "address"
        },
        {
          "internalType": "uint256",
          "name": "itemId",
          "type": "uint256"
        }
      ],
      "name": "createMarketSale",
      "outputs": [],
      "stateMutability": "payable",
      "type": "function"
    },
    {
      "inputs": [
        {
          "internalType": "address",
          "name": "nftContract",
          "type": "address"
        },
        {
          "internalType": "uint256",
          "name": "itemId",
          "type": "uint256"
        }
      ],
      "name": "createMarketSaleByHSN",
      "outputs": [],
      "stateMutability": "payable",
      "type": "function"
    },
    {
      "inputs": [],
      "name": "fee",
      "outputs": [
        {
          "internalType": "uint256",
          "name": "",
          "type": "uint256"
        }
      ],
      "stateMutability": "view",
      "type": "function"
    },
    {
      "inputs": [
        {
          "internalType": "uint256",
          "name": "itemId",
          "type": "uint256"
        }
      ],
      "name": "fetchDetailItem",
      "outputs": [
        {
          "components": [
            {
              "internalType": "uint256",
              "name": "itemId",
              "type": "uint256"
            },
            {
              "internalType": "address",
              "name": "nftContract",
              "type": "address"
            },
            {
              "internalType": "uint256",
              "name": "tokenId",
              "type": "uint256"
            },
            {
              "internalType": "address payable",
              "name": "seller",
              "type": "address"
            },
            {
              "internalType": "address payable",
              "name": "owner",
              "type": "address"
            },
            {
              "internalType": "uint256",
              "name": "price",
              "type": "uint256"
            },
            {
              "internalType": "bool",
              "name": "sold",
              "type": "bool"
            },
            {
              "internalType": "bool",
              "name": "isEth",
              "type": "bool"
            }
          ],
          "internalType": "struct NFTMarket.MarketItem",
          "name": "",
          "type": "tuple"
        }
      ],
      "stateMutability": "view",
      "type": "function"
    },
    {
      "inputs": [],
      "name": "fetchItemsCreated",
      "outputs": [
        {
          "components": [
            {
              "internalType": "uint256",
              "name": "itemId",
              "type": "uint256"
            },
            {
              "internalType": "address",
              "name": "nftContract",
              "type": "address"
            },
            {
              "internalType": "uint256",
              "name": "tokenId",
              "type": "uint256"
            },
            {
              "internalType": "address payable",
              "name": "seller",
              "type": "address"
            },
            {
              "internalType": "address payable",
              "name": "owner",
              "type": "address"
            },
            {
              "internalType": "uint256",
              "name": "price",
              "type": "uint256"
            },
            {
              "internalType": "bool",
              "name": "sold",
              "type": "bool"
            },
            {
              "internalType": "bool",
              "name": "isEth",
              "type": "bool"
            }
          ],
          "internalType": "struct NFTMarket.MarketItem[]",
          "name": "",
          "type": "tuple[]"
        }
      ],
      "stateMutability": "view",
      "type": "function"
    },
    {
      "inputs": [],
      "name": "fetchMarketItems",
      "outputs": [
        {
          "components": [
            {
              "internalType": "uint256",
              "name": "itemId",
              "type": "uint256"
            },
            {
              "internalType": "address",
              "name": "nftContract",
              "type": "address"
            },
            {
              "internalType": "uint256",
              "name": "tokenId",
              "type": "uint256"
            },
            {
              "internalType": "address payable",
              "name": "seller",
              "type": "address"
            },
            {
              "internalType": "address payable",
              "name": "owner",
              "type": "address"
            },
            {
              "internalType": "uint256",
              "name": "price",
              "type": "uint256"
            },
            {
              "internalType": "bool",
              "name": "sold",
              "type": "bool"
            },
            {
              "internalType": "bool",
              "name": "isEth",
              "type": "bool"
            }
          ],
          "internalType": "struct NFTMarket.MarketItem[]",
          "name": "",
          "type": "tuple[]"
        }
      ],
      "stateMutability": "view",
      "type": "function"
    },
    {
      "inputs": [],
      "name": "fetchMyNFTs",
      "outputs": [
        {
          "components": [
            {
              "internalType": "uint256",
              "name": "itemId",
              "type": "uint256"
            },
            {
              "internalType": "address",
              "name": "nftContract",
              "type": "address"
            },
            {
              "internalType": "uint256",
              "name": "tokenId",
              "type": "uint256"
            },
            {
              "internalType": "address payable",
              "name": "seller",
              "type": "address"
            },
            {
              "internalType": "address payable",
              "name": "owner",
              "type": "address"
            },
            {
              "internalType": "uint256",
              "name": "price",
              "type": "uint256"
            },
            {
              "internalType": "bool",
              "name": "sold",
              "type": "bool"
            },
            {
              "internalType": "bool",
              "name": "isEth",
              "type": "bool"
            }
          ],
          "internalType": "struct NFTMarket.MarketItem[]",
          "name": "",
          "type": "tuple[]"
        }
      ],
      "stateMutability": "view",
      "type": "function"
    },
    {
      "inputs": [],
      "name": "getFee",
      "outputs": [
        {
          "internalType": "uint256",
          "name": "",
          "type": "uint256"
        }
      ],
      "stateMutability": "view",
      "type": "function"
    },
    {
      "inputs": [],
      "name": "getListingPrice",
      "outputs": [
        {
          "internalType": "uint256",
          "name": "",
          "type": "uint256"
        }
      ],
      "stateMutability": "view",
      "type": "function"
    },
    {
      "inputs": [
        {
          "internalType": "address",
          "name": "hsnToken",
          "type": "address"
        }
      ],
      "name": "initialize",
      "outputs": [],
      "stateMutability": "nonpayable",
      "type": "function"
    },
    {
      "inputs": [],
      "name": "listingPrice",
      "outputs": [
        {
          "internalType": "uint256",
          "name": "",
          "type": "uint256"
        }
      ],
      "stateMutability": "view",
      "type": "function"
    },
    {
      "inputs": [
        {
          "internalType": "address",
          "name": "nftContract",
          "type": "address"
        },
        {
          "internalType": "uint256",
          "name": "itemId",
          "type": "uint256"
        },
        {
          "internalType": "uint256",
          "name": "price",
          "type": "uint256"
        }
      ],
      "name": "reCreateMarketItem",
      "outputs": [],
      "stateMutability": "payable",
      "type": "function"
    },
    {
      "inputs": [
        {
          "internalType": "address",
          "name": "nftContract",
          "type": "address"
        },
        {
          "internalType": "uint256",
          "name": "itemId",
          "type": "uint256"
        },
        {
          "internalType": "uint256",
          "name": "price",
          "type": "uint256"
        }
      ],
      "name": "reCreateMarketItemByHSN",
      "outputs": [],
      "stateMutability": "payable",
      "type": "function"
    },
    {
      "inputs": [
        {
          "internalType": "uint256",
          "name": "newFee",
          "type": "uint256"
        }
      ],
      "name": "setFee",
      "outputs": [],
      "stateMutability": "nonpayable",
      "type": "function"
    },
    {
      "inputs": [],
      "name": "token",
      "outputs": [
        {
          "internalType": "contract IERC20",
          "name": "",
          "type": "address"
        }
      ],
      "stateMutability": "view",
      "type": "function"
    },
    {
      "inputs": [],
      "name": "version",
      "outputs": [
        {
          "internalType": "string",
          "name": "",
          "type": "string"
        }
      ],
      "stateMutability": "pure",
      "type": "function"
    }
  ],
  "bytecode": "0x608060405234801561001057600080fd5b50611fc2806100206000396000f3fe6080604052600436106101095760003560e01c806369fe0e2d11610095578063c78f19f911610064578063c78f19f914610282578063ced72f8714610298578063ddca3f43146102ad578063f064c32e146102c3578063fc0c546a146102d857600080fd5b806369fe0e2d1461021c578063a4ee4dd71461023c578063c23b139e1461024f578063c4d66de81461026257600080fd5b806354fd4d50116100dc57806354fd4d501461018257806358eb2df5146101b65780635f8fcdb1146101c9578063627024c8146101dc57806368f6c6191461020957600080fd5b80630f08efe01461010e57806312e85585146101395780631c41759314610158578063202e37401461016d575b600080fd5b34801561011a57600080fd5b50610123610310565b6040516101309190611dd9565b60405180910390f35b34801561014557600080fd5b506036545b604051908152602001610130565b61016b610166366004611c9f565b6104cb565b005b34801561017957600080fd5b50610123610772565b34801561018e57600080fd5b5060408051808201825260058152640322e302e360dc1b602082015290516101309190611e28565b61016b6101c4366004611c9f565b61096b565b61016b6101d7366004611c74565b610c5e565b3480156101e857600080fd5b506101fc6101f7366004611cf3565b610dab565b6040516101309190611e94565b61016b610217366004611c9f565b610e3a565b34801561022857600080fd5b5061016b610237366004611cf3565b611076565b61016b61024a366004611c9f565b6110cb565b61016b61025d366004611c74565b61137c565b34801561026e57600080fd5b5061016b61027d366004611c35565b6114e2565b34801561028e57600080fd5b5061014a60365481565b3480156102a457600080fd5b5060385461014a565b3480156102b957600080fd5b5061014a60385481565b3480156102cf57600080fd5b50610123611624565b3480156102e457600080fd5b506037546102f8906001600160a01b031681565b6040516001600160a01b039091168152602001610130565b6060600061031d60335490565b9050600061032a60345490565b6033546103379190611f00565b90506000808267ffffffffffffffff81111561036357634e487b7160e01b600052604160045260246000fd5b60405190808252806020026020018201604052801561039c57816020015b610389611bf1565b8152602001906001900390816103815790505b50905060005b848110156104c25760006039816103ba846001611ea9565b81526020810191909152604001600020600401546001600160a01b031614156104b05760006103ea826001611ea9565b600081815260396020908152604091829020825161010080820185528254825260018301546001600160a01b039081169483019490945260028301549482019490945260038201548316606082015260048201549092166080830152600581015460a0830152600681015460ff808216151560c0850152939004909216151560e08201528551929350909185908790811061049557634e487b7160e01b600052603260045260246000fd5b60209081029190910101526104ab600186611ea9565b945050505b806104ba81611f43565b9150506103a2565b50949350505050565b6104d361181d565b600081116104fc5760405162461bcd60e51b81526004016104f390611e5d565b60405180910390fd5b6000341161054c5760405162461bcd60e51b815260206004820152601c60248201527f56616c7565206d757374206265206174206c656173742031207765690000000060448201526064016104f3565b60008281526039602052604090819020600281015460069091015491516331a9108f60e11b8152600481018290529091610100900460ff16906001600160a01b03861690636352211e9060240160206040518083038186803b1580156105b157600080fd5b505afa1580156105c5573d6000803e3d6000fd5b505050506040513d601f19601f820116820180604052508101906105e99190611c58565b6001600160a01b0316336001600160a01b0316146106355760405162461bcd60e51b81526020600482015260096024820152682727aa1027aba722a960b91b60448201526064016104f3565b6001811515146106795760405162461bcd60e51b815260206004820152600f60248201526e0a6f2dac4ded840d2e64ee8408aa89608b1b60448201526064016104f3565b6040516323b872dd60e01b81526001600160a01b038616906323b872dd906106a990339030908790600401611db5565b600060405180830381600087803b1580156106c357600080fd5b505af11580156106d7573d6000803e3d6000fd5b50506035546040516001600160a01b0390911692503480156108fc029250906000818181858888f19350505050158015610715573d6000803e3d6000fd5b5060008481526039602052604090206003810180546001600160a01b03199081163317909155600482018054909116905560068101805460ff191690556005018390556107626034611877565b505061076d60018055565b505050565b6060600061077f60335490565b905060008060005b838110156107e257336039600061079f846001611ea9565b81526020810191909152604001600020600401546001600160a01b031614156107d0576107cd600184611ea9565b92505b806107da81611f43565b915050610787565b5060008267ffffffffffffffff81111561080c57634e487b7160e01b600052604160045260246000fd5b60405190808252806020026020018201604052801561084557816020015b610832611bf1565b81526020019060019003908161082a5790505b50905060005b848110156104c2573360396000610863846001611ea9565b81526020810191909152604001600020600401546001600160a01b03161415610959576000610893826001611ea9565b600081815260396020908152604091829020825161010080820185528254825260018301546001600160a01b039081169483019490945260028301549482019490945260038201548316606082015260048201549092166080830152600581015460a0830152600681015460ff808216151560c0850152939004909216151560e08201528551929350909185908790811061093e57634e487b7160e01b600052603260045260246000fd5b6020908102919091010152610954600186611ea9565b945050505b8061096381611f43565b91505061084b565b61097361181d565b600081116109935760405162461bcd60e51b81526004016104f390611e5d565b600034116109e35760405162461bcd60e51b815260206004820152601c60248201527f56616c7565206d757374206265206174206c656173742031207765690000000060448201526064016104f3565b6109f1603380546001019055565b60006109fc60335490565b9050604051806101000160405280828152602001856001600160a01b03168152602001848152602001336001600160a01b0316815260200160006001600160a01b0316815260200183815260200160001515815260200160011515815250603960008381526020019081526020016000206000820151816000015560208201518160010160006101000a8154816001600160a01b0302191690836001600160a01b031602179055506040820151816002015560608201518160030160006101000a8154816001600160a01b0302191690836001600160a01b0316021790555060808201518160040160006101000a8154816001600160a01b0302191690836001600160a01b0316021790555060a0820151816005015560c08201518160060160006101000a81548160ff02191690831515021790555060e08201518160060160016101000a81548160ff021916908315150217905550905050836001600160a01b03166323b872dd3330866040518463ffffffff1660e01b8152600401610b8593929190611db5565b600060405180830381600087803b158015610b9f57600080fd5b505af1158015610bb3573d6000803e3d6000fd5b50506035546040516001600160a01b0390911692503480156108fc029250906000818181858888f19350505050158015610bf1573d6000803e3d6000fd5b506040805133815260006020820181905291810184905260608101919091526001608082015283906001600160a01b0386169083907fc99151f4453170a67bc7441775fde1a3bc3220c06645df1121e703aab5e7da5d9060a0015b60405180910390a45061076d60018055565b610c6661181d565b600081815260396020526040902060058101546002820154600690920154909190610100900460ff168015610ccd5760405162461bcd60e51b815260206004820152600d60248201526c0a6f2dac4ded840d2e6408aa89609b1b60448201526064016104f3565b600084815260396020526040902060030154603754610cfb916001600160a01b0391821691339116866118ce565b6040516323b872dd60e01b81526001600160a01b038616906323b872dd90610d2b90309033908790600401611db5565b600060405180830381600087803b158015610d4557600080fd5b505af1158015610d59573d6000803e3d6000fd5b50505060008581526039602052604090206004810180546001600160a01b03191633179055600601805460ff1916600117905550610d9b603480546001019055565b505050610da760018055565b5050565b610db3611bf1565b50600090815260396020908152604091829020825161010080820185528254825260018301546001600160a01b039081169483019490945260028301549482019490945260038201548316606082015260048201549092166080830152600581015460a08301526006015460ff808216151560c0840152929004909116151560e082015290565b610e4261181d565b60008111610e625760405162461bcd60e51b81526004016104f390611e5d565b60008281526039602052604090206002810154600690910154610100900460ff168015610ec15760405162461bcd60e51b815260206004820152600d60248201526c0a6f2dac4ded840d2e6408aa89609b1b60448201526064016104f3565b6040516331a9108f60e11b8152600481018390526001600160a01b03861690636352211e9060240160206040518083038186803b158015610f0157600080fd5b505afa158015610f15573d6000803e3d6000fd5b505050506040513d601f19601f82011682018060405250810190610f399190611c58565b6001600160a01b0316336001600160a01b031614610f855760405162461bcd60e51b81526020600482015260096024820152682727aa1027aba722a960b91b60448201526064016104f3565b603554603854610fc89133916001600160a01b0390911690606490610faa9088611ee1565b610fb49190611ec1565b6037546001600160a01b03169291906118ce565b6040516323b872dd60e01b81526001600160a01b038616906323b872dd90610ff890339030908790600401611db5565b600060405180830381600087803b15801561101257600080fd5b505af1158015611026573d6000803e3d6000fd5b50505060008581526039602052604090206003810180546001600160a01b03199081163317909155600482018054909116905560068101805460ff19169055600501849055506107626034611877565b6035546001600160a01b031633146110c65760405162461bcd60e51b81526020600482015260136024820152722cb7ba9030b932b713ba1030b71030b236b4b760691b60448201526064016104f3565b603855565b6110d361181d565b600081116110f35760405162461bcd60e51b81526004016104f390611e5d565b6111326040518060400160405280601b81526020017f6372656174654d61726b65744974656d427948534e20707269636500000000008152508261192c565b611140603380546001019055565b600061114b60335490565b6040805161010080820183528382526001600160a01b0388811660208085018281528587018b81523360608801818152600060808a0181815260a08b018f815260c08c0183815260e08d018481528f85526039909952928d90209b518c55955160018c0180546001600160a01b0319908116928c16929092179055945160028c0155915160038b0180548616918a1691909117905590516004808b0180549095169190981617909255915160058801555160069096018054925161ffff1990931696151561ff001916969096179115159094021790935592516323b872dd60e01b815293945090926323b872dd9261124892913091899101611db5565b600060405180830381600087803b15801561126257600080fd5b505af1158015611276573d6000803e3d6000fd5b50506037546038546001600160a01b0390911692506323b872dd9150339030906064906112a39088611ee1565b6112ad9190611ec1565b6040518463ffffffff1660e01b81526004016112cb93929190611db5565b602060405180830381600087803b1580156112e557600080fd5b505af11580156112f9573d6000803e3d6000fd5b505050506040513d601f19601f8201168201806040525081019061131d9190611cd3565b506040805133815260006020820181905291810184905260608101829052608081019190915283906001600160a01b0386169083907fc99151f4453170a67bc7441775fde1a3bc3220c06645df1121e703aab5e7da5d9060a001610c4c565b61138461181d565b600081815260396020526040902060058101546002820154600690920154909190610100900460ff1634831115611425576040805162461bcd60e51b81526020600482015260248101919091527f506c65617365207375626d6974207468652061736b696e67207072696365206960448201527f6e206f7264657220746f20636f6d706c6574652074686520707572636861736560648201526084016104f3565b6001811515146114695760405162461bcd60e51b815260206004820152600f60248201526e0a6f2dac4ded840d2e64ee8408aa89608b1b60448201526064016104f3565b6000848152603960205260408082206003015490516001600160a01b03909116913480156108fc02929091818181858888f193505050501580156114b1573d6000803e3d6000fd5b506040516323b872dd60e01b81526001600160a01b038616906323b872dd90610d2b90309033908790600401611db5565b600054610100900460ff16158080156115025750600054600160ff909116105b8061151c5750303b15801561151c575060005460ff166001145b61157f5760405162461bcd60e51b815260206004820152602e60248201527f496e697469616c697a61626c653a20636f6e747261637420697320616c72656160448201526d191e481a5b9a5d1a585b1a5e995960921b60648201526084016104f3565b6000805460ff1916600117905580156115a2576000805461ff0019166101001790555b60358054336001600160a01b0319918216179091556658d15e176280006036556001603855603780549091166001600160a01b0384161790558015610da7576000805461ff0019169055604051600181527f7f26b83ff96e1f2b6a682f133852f6798a09c465da95921460cefb38474024989060200160405180910390a15050565b6060600061163160335490565b905060008060005b83811015611694573360396000611651846001611ea9565b81526020810191909152604001600020600301546001600160a01b031614156116825761167f600184611ea9565b92505b8061168c81611f43565b915050611639565b5060008267ffffffffffffffff8111156116be57634e487b7160e01b600052604160045260246000fd5b6040519080825280602002602001820160405280156116f757816020015b6116e4611bf1565b8152602001906001900390816116dc5790505b50905060005b848110156104c2573360396000611715846001611ea9565b81526020810191909152604001600020600301546001600160a01b0316141561180b576000611745826001611ea9565b600081815260396020908152604091829020825161010080820185528254825260018301546001600160a01b039081169483019490945260028301549482019490945260038201548316606082015260048201549092166080830152600581015460a0830152600681015460ff808216151560c0850152939004909216151560e0820152855192935090918590879081106117f057634e487b7160e01b600052603260045260246000fd5b6020908102919091010152611806600186611ea9565b945050505b8061181581611f43565b9150506116fd565b600260015414156118705760405162461bcd60e51b815260206004820152601f60248201527f5265656e7472616e637947756172643a207265656e7472616e742063616c6c0060448201526064016104f3565b6002600155565b8054806118c65760405162461bcd60e51b815260206004820152601b60248201527f436f756e7465723a2064656372656d656e74206f766572666c6f77000000000060448201526064016104f3565b600019019055565b611926846323b872dd60e01b8585856040516024016118ef93929190611db5565b60408051601f198184030181529190526020810180516001600160e01b03166001600160e01b031990931692909217909152611971565b50505050565b610da78282604051602401611942929190611e3b565b60408051601f198184030181529190526020810180516001600160e01b0316632d839cb360e21b179052611a43565b60006119c6826040518060400160405280602081526020017f5361666545524332303a206c6f772d6c6576656c2063616c6c206661696c6564815250856001600160a01b0316611a649092919063ffffffff16565b80519091501561076d57808060200190518101906119e49190611cd3565b61076d5760405162461bcd60e51b815260206004820152602a60248201527f5361666545524332303a204552433230206f7065726174696f6e20646964206e6044820152691bdd081cdd58d8d9595960b21b60648201526084016104f3565b80516a636f6e736f6c652e6c6f67602083016000808483855afa5050505050565b6060611a738484600085611a7b565b949350505050565b606082471015611adc5760405162461bcd60e51b815260206004820152602660248201527f416464726573733a20696e73756666696369656e742062616c616e636520666f6044820152651c8818d85b1b60d21b60648201526084016104f3565b600080866001600160a01b03168587604051611af89190611d99565b60006040518083038185875af1925050503d8060008114611b35576040519150601f19603f3d011682016040523d82523d6000602084013e611b3a565b606091505b5091509150611b4b87838387611b56565b979650505050505050565b60608315611bc2578251611bbb576001600160a01b0385163b611bbb5760405162461bcd60e51b815260206004820152601d60248201527f416464726573733a2063616c6c20746f206e6f6e2d636f6e747261637400000060448201526064016104f3565b5081611a73565b611a738383815115611bd75781518083602001fd5b8060405162461bcd60e51b81526004016104f39190611e28565b6040805161010081018252600080825260208201819052918101829052606081018290526080810182905260a0810182905260c0810182905260e081019190915290565b600060208284031215611c46578081fd5b8135611c5181611f74565b9392505050565b600060208284031215611c69578081fd5b8151611c5181611f74565b60008060408385031215611c86578081fd5b8235611c9181611f74565b946020939093013593505050565b600080600060608486031215611cb3578081fd5b8335611cbe81611f74565b95602085013595506040909401359392505050565b600060208284031215611ce4578081fd5b81518015158114611c51578182fd5b600060208284031215611d04578081fd5b5035919050565b60008151808452611d23816020860160208601611f17565b601f01601f19169290920160200192915050565b80518252602081015160018060a01b03808216602085015260408301516040850152806060840151166060850152806080840151166080850152505060a081015160a083015260c0810151151560c083015260e0810151151560e08301525050565b60008251611dab818460208701611f17565b9190910192915050565b6001600160a01b039384168152919092166020820152604081019190915260600190565b6020808252825182820181905260009190848201906040850190845b81811015611e1c57611e08838551611d37565b928401926101009290920191600101611df5565b50909695505050505050565b602081526000611c516020830184611d0b565b604081526000611e4e6040830185611d0b565b90508260208301529392505050565b6020808252601c908201527f5072696365206d757374206265206174206c6561737420312077656900000000604082015260600190565b6101008101611ea38284611d37565b92915050565b60008219821115611ebc57611ebc611f5e565b500190565b600082611edc57634e487b7160e01b81526012600452602481fd5b500490565b6000816000190483118215151615611efb57611efb611f5e565b500290565b600082821015611f1257611f12611f5e565b500390565b60005b83811015611f32578181015183820152602001611f1a565b838111156119265750506000910152565b6000600019821415611f5757611f57611f5e565b5060010190565b634e487b7160e01b600052601160045260246000fd5b6001600160a01b0381168114611f8957600080fd5b5056fea264697066735822122027d249e8be36f50cff1d43e3f94481addd1626c01972a7091f5af5846d63268064736f6c63430008040033",
  "linkReferences": {},
  "deployedLinkReferences": {}
}