{
  "_format": "hh-sol-artifact-1",
  "contractName": "HSNToken",
  "sourceName": "contracts/HSNToken.sol",
  "abi": [
    {
      "anonymous": false,
      "inputs": [
        {
          "indexed": true,
          "internalType": "address",
          "name": "owner",
          "type": "address"
        },
        {
          "indexed": true,
          "internalType": "address",
          "name": "spender",
          "type": "address"
        },
        {
          "indexed": false,
          "internalType": "uint256",
          "name": "value",
          "type": "uint256"
        }
      ],
      "name": "Approval",
      "type": "event"
    },
    {
      "anonymous": false,
      "inputs": [
        {
          "indexed": false,
          "internalType": "uint8",
          "name": "version",
          "type": "uint8"
        }
      ],
      "name": "Initialized",
      "type": "event"
    },
    {
      "anonymous": false,
      "inputs": [
        {
          "indexed": true,
          "internalType": "address",
          "name": "from",
          "type": "address"
        },
        {
          "indexed": true,
          "internalType": "address",
          "name": "to",
          "type": "address"
        },
        {
          "indexed": false,
          "internalType": "uint256",
          "name": "value",
          "type": "uint256"
        }
      ],
      "name": "Transfer",
      "type": "event"
    },
    {
      "inputs": [
        {
          "internalType": "address",
          "name": "owner",
          "type": "address"
        },
        {
          "internalType": "address",
          "name": "spender",
          "type": "address"
        }
      ],
      "name": "allowance",
      "outputs": [
        {
          "internalType": "uint256",
          "name": "",
          "type": "uint256"
        }
      ],
      "stateMutability": "view",
      "type": "function"
    },
    {
      "inputs": [
        {
          "internalType": "address",
          "name": "spender",
          "type": "address"
        },
        {
          "internalType": "uint256",
          "name": "amount",
          "type": "uint256"
        }
      ],
      "name": "approve",
      "outputs": [
        {
          "internalType": "bool",
          "name": "",
          "type": "bool"
        }
      ],
      "stateMutability": "nonpayable",
      "type": "function"
    },
    {
      "inputs": [
        {
          "internalType": "address",
          "name": "account",
          "type": "address"
        }
      ],
      "name": "balanceOf",
      "outputs": [
        {
          "internalType": "uint256",
          "name": "",
          "type": "uint256"
        }
      ],
      "stateMutability": "view",
      "type": "function"
    },
    {
      "inputs": [],
      "name": "decimals",
      "outputs": [
        {
          "internalType": "uint8",
          "name": "",
          "type": "uint8"
        }
      ],
      "stateMutability": "view",
      "type": "function"
    },
    {
      "inputs": [
        {
          "internalType": "address",
          "name": "spender",
          "type": "address"
        },
        {
          "internalType": "uint256",
          "name": "subtractedValue",
          "type": "uint256"
        }
      ],
      "name": "decreaseAllowance",
      "outputs": [
        {
          "internalType": "bool",
          "name": "",
          "type": "bool"
        }
      ],
      "stateMutability": "nonpayable",
      "type": "function"
    },
    {
      "inputs": [
        {
          "internalType": "address",
          "name": "spender",
          "type": "address"
        },
        {
          "internalType": "uint256",
          "name": "addedValue",
          "type": "uint256"
        }
      ],
      "name": "increaseAllowance",
      "outputs": [
        {
          "internalType": "bool",
          "name": "",
          "type": "bool"
        }
      ],
      "stateMutability": "nonpayable",
      "type": "function"
    },
    {
      "inputs": [],
      "name": "initialize",
      "outputs": [],
      "stateMutability": "nonpayable",
      "type": "function"
    },
    {
      "inputs": [],
      "name": "mintMinerReward",
      "outputs": [],
      "stateMutability": "nonpayable",
      "type": "function"
    },
    {
      "inputs": [],
      "name": "name",
      "outputs": [
        {
          "internalType": "string",
          "name": "",
          "type": "string"
        }
      ],
      "stateMutability": "view",
      "type": "function"
    },
    {
      "inputs": [],
      "name": "symbol",
      "outputs": [
        {
          "internalType": "string",
          "name": "",
          "type": "string"
        }
      ],
      "stateMutability": "view",
      "type": "function"
    },
    {
      "inputs": [],
      "name": "totalSupply",
      "outputs": [
        {
          "internalType": "uint256",
          "name": "",
          "type": "uint256"
        }
      ],
      "stateMutability": "view",
      "type": "function"
    },
    {
      "inputs": [
        {
          "internalType": "address",
          "name": "to",
          "type": "address"
        },
        {
          "internalType": "uint256",
          "name": "amount",
          "type": "uint256"
        }
      ],
      "name": "transfer",
      "outputs": [
        {
          "internalType": "bool",
          "name": "",
          "type": "bool"
        }
      ],
      "stateMutability": "nonpayable",
      "type": "function"
    },
    {
      "inputs": [
        {
          "internalType": "address",
          "name": "from",
          "type": "address"
        },
        {
          "internalType": "address",
          "name": "to",
          "type": "address"
        },
        {
          "internalType": "uint256",
          "name": "amount",
          "type": "uint256"
        }
      ],
      "name": "transferFrom",
      "outputs": [
        {
          "internalType": "bool",
          "name": "",
          "type": "bool"
        }
      ],
      "stateMutability": "nonpayable",
      "type": "function"
    }
  ],
  "bytecode": "0x608060405234801561001057600080fd5b50610dbc806100206000396000f3fe608060405234801561001057600080fd5b50600436106100cf5760003560e01c806370a082311161008c578063a457c2d711610066578063a457c2d714610197578063a9059cbb146101aa578063d63c88a6146101bd578063dd62ed3e146101c557600080fd5b806370a082311461015c5780638129fc1c1461018557806395d89b411461018f57600080fd5b806306fdde03146100d4578063095ea7b3146100f257806318160ddd1461011557806323b872dd14610127578063313ce5671461013a5780633950935114610149575b600080fd5b6100dc6101d8565b6040516100e99190610b75565b60405180910390f35b610105610100366004610b4c565b61026a565b60405190151581526020016100e9565b6035545b6040519081526020016100e9565b610105610135366004610b11565b610284565b604051601281526020016100e9565b610105610157366004610b4c565b6102a8565b61011961016a366004610abe565b6001600160a01b031660009081526033602052604090205490565b61018d6102ca565b005b6100dc61045a565b6101056101a5366004610b4c565b610469565b6101056101b8366004610b4c565b6104e4565b61018d6104f2565b6101196101d3366004610adf565b610550565b6060603680546101e790610d35565b80601f016020809104026020016040519081016040528092919081815260200182805461021390610d35565b80156102605780601f1061023557610100808354040283529160200191610260565b820191906000526020600020905b81548152906001019060200180831161024357829003601f168201915b5050505050905090565b60003361027881858561057b565b60019150505b92915050565b60003361029285828561069f565b61029d858585610719565b506001949350505050565b6000336102788185856102bb8383610550565b6102c59190610c13565b61057b565b600054610100900460ff16158080156102ea5750600054600160ff909116105b806103045750303b158015610304575060005460ff166001145b61036c5760405162461bcd60e51b815260206004820152602e60248201527f496e697469616c697a61626c653a20636f6e747261637420697320616c72656160448201526d191e481a5b9a5d1a585b1a5e995960921b60648201526084015b60405180910390fd5b6000805460ff19166001179055801561038f576000805461ff0019166101001790555b6103cf6040518060400160405280600381526020016210959560ea1b8152506040518060400160405280600381526020016210959560ea1b8152506108c4565b606580546001600160a01b03191633908117909155610411906103f0601290565b6103fe9060ff16600a610c6e565b61040c90633b9aca00610d16565b6108f9565b8015610457576000805461ff0019169055604051600181527f7f26b83ff96e1f2b6a682f133852f6798a09c465da95921460cefb38474024989060200160405180910390a15b50565b6060603780546101e790610d35565b600033816104778286610550565b9050838110156104d75760405162461bcd60e51b815260206004820152602560248201527f45524332303a2064656372656173656420616c6c6f77616e63652062656c6f77604482015264207a65726f60d81b6064820152608401610363565b61029d828686840361057b565b600033610278818585610719565b6065546001600160a01b031633146105425760405162461bcd60e51b81526020600482015260136024820152722cb7ba9030b932b713ba1030b71030b236b4b760691b6044820152606401610363565b61054e416103e86108f9565b565b6001600160a01b03918216600090815260346020908152604080832093909416825291909152205490565b6001600160a01b0383166105dd5760405162461bcd60e51b8152602060048201526024808201527f45524332303a20617070726f76652066726f6d20746865207a65726f206164646044820152637265737360e01b6064820152608401610363565b6001600160a01b03821661063e5760405162461bcd60e51b815260206004820152602260248201527f45524332303a20617070726f766520746f20746865207a65726f206164647265604482015261737360f01b6064820152608401610363565b6001600160a01b0383811660008181526034602090815260408083209487168084529482529182902085905590518481527f8c5be1e5ebec7d5bd14f71427d1e84f3dd0314c0f7b2291e5b200ac8c7c3b925910160405180910390a3505050565b60006106ab8484610550565b9050600019811461071357818110156107065760405162461bcd60e51b815260206004820152601d60248201527f45524332303a20696e73756666696369656e7420616c6c6f77616e63650000006044820152606401610363565b610713848484840361057b565b50505050565b6001600160a01b03831661077d5760405162461bcd60e51b815260206004820152602560248201527f45524332303a207472616e736665722066726f6d20746865207a65726f206164604482015264647265737360d81b6064820152608401610363565b6001600160a01b0382166107df5760405162461bcd60e51b815260206004820152602360248201527f45524332303a207472616e7366657220746f20746865207a65726f206164647260448201526265737360e81b6064820152608401610363565b6001600160a01b038316600090815260336020526040902054818110156108575760405162461bcd60e51b815260206004820152602660248201527f45524332303a207472616e7366657220616d6f756e7420657863656564732062604482015265616c616e636560d01b6064820152608401610363565b6001600160a01b0380851660008181526033602052604080822086860390559286168082529083902080548601905591517fddf252ad1be2c89b69c2b068fc378daa952ba7f163c4a11628f55a4df523b3ef906108b79086815260200190565b60405180910390a3610713565b600054610100900460ff166108eb5760405162461bcd60e51b815260040161036390610bc8565b6108f582826109bf565b5050565b6001600160a01b03821661094f5760405162461bcd60e51b815260206004820152601f60248201527f45524332303a206d696e7420746f20746865207a65726f2061646472657373006044820152606401610363565b80603560008282546109619190610c13565b90915550506001600160a01b0382166000818152603360209081526040808320805486019055518481527fddf252ad1be2c89b69c2b068fc378daa952ba7f163c4a11628f55a4df523b3ef910160405180910390a35050565b505050565b600054610100900460ff166109e65760405162461bcd60e51b815260040161036390610bc8565b81516109f9906036906020850190610a09565b5080516109ba9060379060208401905b828054610a1590610d35565b90600052602060002090601f016020900481019282610a375760008555610a7d565b82601f10610a5057805160ff1916838001178555610a7d565b82800160010185558215610a7d579182015b82811115610a7d578251825591602001919060010190610a62565b50610a89929150610a8d565b5090565b5b80821115610a895760008155600101610a8e565b80356001600160a01b0381168114610ab957600080fd5b919050565b600060208284031215610acf578081fd5b610ad882610aa2565b9392505050565b60008060408385031215610af1578081fd5b610afa83610aa2565b9150610b0860208401610aa2565b90509250929050565b600080600060608486031215610b25578081fd5b610b2e84610aa2565b9250610b3c60208501610aa2565b9150604084013590509250925092565b60008060408385031215610b5e578182fd5b610b6783610aa2565b946020939093013593505050565b6000602080835283518082850152825b81811015610ba157858101830151858201604001528201610b85565b81811115610bb25783604083870101525b50601f01601f1916929092016040019392505050565b6020808252602b908201527f496e697469616c697a61626c653a20636f6e7472616374206973206e6f74206960408201526a6e697469616c697a696e6760a81b606082015260800190565b60008219821115610c2657610c26610d70565b500190565b600181815b80851115610c66578160001904821115610c4c57610c4c610d70565b80851615610c5957918102915b93841c9390800290610c30565b509250929050565b6000610ad88383600082610c845750600161027e565b81610c915750600061027e565b8160018114610ca75760028114610cb157610ccd565b600191505061027e565b60ff841115610cc257610cc2610d70565b50506001821b61027e565b5060208310610133831016604e8410600b8410161715610cf0575081810a61027e565b610cfa8383610c2b565b8060001904821115610d0e57610d0e610d70565b029392505050565b6000816000190483118215151615610d3057610d30610d70565b500290565b600181811c90821680610d4957607f821691505b60208210811415610d6a57634e487b7160e01b600052602260045260246000fd5b50919050565b634e487b7160e01b600052601160045260246000fdfea2646970667358221220a63c9b627970c9559d5cd72ba3c3e6c70805841df4c1f537daf6e5df2c76a91464736f6c63430008040033",
  "linkReferences": {},
  "deployedLinkReferences": {}
}