{
  "_format": "hh-sol-artifact-1",
  "contractName": "NFTMarket",
  "sourceName": "contracts/Market.sol",
  "abi": [
    {
      "anonymous": false,
      "inputs": [
        {
          "indexed": false,
          "internalType": "uint8",
          "name": "version",
          "type": "uint8"
        }
      ],
      "name": "Initialized",
      "type": "event"
    },
    {
      "anonymous": false,
      "inputs": [
        {
          "indexed": true,
          "internalType": "uint256",
          "name": "itemId",
          "type": "uint256"
        },
        {
          "indexed": true,
          "internalType": "address",
          "name": "nftContract",
          "type": "address"
        },
        {
          "indexed": true,
          "internalType": "uint256",
          "name": "tokenId",
          "type": "uint256"
        },
        {
          "indexed": false,
          "internalType": "address",
          "name": "seller",
          "type": "address"
        },
        {
          "indexed": false,
          "internalType": "address",
          "name": "owner",
          "type": "address"
        },
        {
          "indexed": false,
          "internalType": "uint256",
          "name": "price",
          "type": "uint256"
        },
        {
          "indexed": false,
          "internalType": "bool",
          "name": "sold",
          "type": "bool"
        },
        {
          "indexed": false,
          "internalType": "bool",
          "name": "isEth",
          "type": "bool"
        }
      ],
      "name": "MarketItemCreated",
      "type": "event"
    },
    {
      "inputs": [
        {
          "internalType": "address",
          "name": "nftContract",
          "type": "address"
        },
        {
          "internalType": "uint256",
          "name": "tokenId",
          "type": "uint256"
        },
        {
          "internalType": "uint256",
          "name": "price",
          "type": "uint256"
        }
      ],
      "name": "createMarketItem",
      "outputs": [],
      "stateMutability": "payable",
      "type": "function"
    },
    {
      "inputs": [
        {
          "internalType": "address",
          "name": "nftContract",
          "type": "address"
        },
        {
          "internalType": "uint256",
          "name": "tokenId",
          "type": "uint256"
        },
        {
          "internalType": "uint256",
          "name": "price",
          "type": "uint256"
        }
      ],
      "name": "createMarketItemByHSN",
      "outputs": [],
      "stateMutability": "payable",
      "type": "function"
    },
    {
      "inputs": [
        {
          "internalType": "address",
          "name": "nftContract",
          "type": "address"
        },
        {
          "internalType": "uint256",
          "name": "itemId",
          "type": "uint256"
        }
      ],
      "name": "createMarketSale",
      "outputs": [],
      "stateMutability": "payable",
      "type": "function"
    },
    {
      "inputs": [
        {
          "internalType": "address",
          "name": "nftContract",
          "type": "address"
        },
        {
          "internalType": "uint256",
          "name": "itemId",
          "type": "uint256"
        }
      ],
      "name": "createMarketSaleByHSN",
      "outputs": [],
      "stateMutability": "payable",
      "type": "function"
    },
    {
      "inputs": [],
      "name": "fee",
      "outputs": [
        {
          "internalType": "uint256",
          "name": "",
          "type": "uint256"
        }
      ],
      "stateMutability": "view",
      "type": "function"
    },
    {
      "inputs": [
        {
          "internalType": "uint256",
          "name": "itemId",
          "type": "uint256"
        }
      ],
      "name": "fetchDetailItem",
      "outputs": [
        {
          "components": [
            {
              "internalType": "uint256",
              "name": "itemId",
              "type": "uint256"
            },
            {
              "internalType": "address",
              "name": "nftContract",
              "type": "address"
            },
            {
              "internalType": "uint256",
              "name": "tokenId",
              "type": "uint256"
            },
            {
              "internalType": "address payable",
              "name": "seller",
              "type": "address"
            },
            {
              "internalType": "address payable",
              "name": "owner",
              "type": "address"
            },
            {
              "internalType": "uint256",
              "name": "price",
              "type": "uint256"
            },
            {
              "internalType": "bool",
              "name": "sold",
              "type": "bool"
            },
            {
              "internalType": "bool",
              "name": "isEth",
              "type": "bool"
            }
          ],
          "internalType": "struct NFTMarket.MarketItem",
          "name": "",
          "type": "tuple"
        }
      ],
      "stateMutability": "view",
      "type": "function"
    },
    {
      "inputs": [],
      "name": "fetchItemsCreated",
      "outputs": [
        {
          "components": [
            {
              "internalType": "uint256",
              "name": "itemId",
              "type": "uint256"
            },
            {
              "internalType": "address",
              "name": "nftContract",
              "type": "address"
            },
            {
              "internalType": "uint256",
              "name": "tokenId",
              "type": "uint256"
            },
            {
              "internalType": "address payable",
              "name": "seller",
              "type": "address"
            },
            {
              "internalType": "address payable",
              "name": "owner",
              "type": "address"
            },
            {
              "internalType": "uint256",
              "name": "price",
              "type": "uint256"
            },
            {
              "internalType": "bool",
              "name": "sold",
              "type": "bool"
            },
            {
              "internalType": "bool",
              "name": "isEth",
              "type": "bool"
            }
          ],
          "internalType": "struct NFTMarket.MarketItem[]",
          "name": "",
          "type": "tuple[]"
        }
      ],
      "stateMutability": "view",
      "type": "function"
    },
    {
      "inputs": [],
      "name": "fetchMarketItems",
      "outputs": [
        {
          "components": [
            {
              "internalType": "uint256",
              "name": "itemId",
              "type": "uint256"
            },
            {
              "internalType": "address",
              "name": "nftContract",
              "type": "address"
            },
            {
              "internalType": "uint256",
              "name": "tokenId",
              "type": "uint256"
            },
            {
              "internalType": "address payable",
              "name": "seller",
              "type": "address"
            },
            {
              "internalType": "address payable",
              "name": "owner",
              "type": "address"
            },
            {
              "internalType": "uint256",
              "name": "price",
              "type": "uint256"
            },
            {
              "internalType": "bool",
              "name": "sold",
              "type": "bool"
            },
            {
              "internalType": "bool",
              "name": "isEth",
              "type": "bool"
            }
          ],
          "internalType": "struct NFTMarket.MarketItem[]",
          "name": "",
          "type": "tuple[]"
        }
      ],
      "stateMutability": "view",
      "type": "function"
    },
    {
      "inputs": [],
      "name": "fetchMyNFTs",
      "outputs": [
        {
          "components": [
            {
              "internalType": "uint256",
              "name": "itemId",
              "type": "uint256"
            },
            {
              "internalType": "address",
              "name": "nftContract",
              "type": "address"
            },
            {
              "internalType": "uint256",
              "name": "tokenId",
              "type": "uint256"
            },
            {
              "internalType": "address payable",
              "name": "seller",
              "type": "address"
            },
            {
              "internalType": "address payable",
              "name": "owner",
              "type": "address"
            },
            {
              "internalType": "uint256",
              "name": "price",
              "type": "uint256"
            },
            {
              "internalType": "bool",
              "name": "sold",
              "type": "bool"
            },
            {
              "internalType": "bool",
              "name": "isEth",
              "type": "bool"
            }
          ],
          "internalType": "struct NFTMarket.MarketItem[]",
          "name": "",
          "type": "tuple[]"
        }
      ],
      "stateMutability": "view",
      "type": "function"
    },
    {
      "inputs": [],
      "name": "getListingPrice",
      "outputs": [
        {
          "internalType": "uint256",
          "name": "",
          "type": "uint256"
        }
      ],
      "stateMutability": "view",
      "type": "function"
    },
    {
      "inputs": [
        {
          "internalType": "address",
          "name": "hsnToken",
          "type": "address"
        }
      ],
      "name": "initialize",
      "outputs": [],
      "stateMutability": "nonpayable",
      "type": "function"
    },
    {
      "inputs": [],
      "name": "listingPrice",
      "outputs": [
        {
          "internalType": "uint256",
          "name": "",
          "type": "uint256"
        }
      ],
      "stateMutability": "view",
      "type": "function"
    },
    {
      "inputs": [
        {
          "internalType": "address",
          "name": "nftContract",
          "type": "address"
        },
        {
          "internalType": "uint256",
          "name": "itemId",
          "type": "uint256"
        },
        {
          "internalType": "uint256",
          "name": "price",
          "type": "uint256"
        }
      ],
      "name": "reCreateMarketItem",
      "outputs": [],
      "stateMutability": "payable",
      "type": "function"
    },
    {
      "inputs": [
        {
          "internalType": "address",
          "name": "nftContract",
          "type": "address"
        },
        {
          "internalType": "uint256",
          "name": "itemId",
          "type": "uint256"
        },
        {
          "internalType": "uint256",
          "name": "price",
          "type": "uint256"
        }
      ],
      "name": "reCreateMarketItemByHSN",
      "outputs": [],
      "stateMutability": "payable",
      "type": "function"
    },
    {
      "inputs": [],
      "name": "token",
      "outputs": [
        {
          "internalType": "contract IERC20",
          "name": "",
          "type": "address"
        }
      ],
      "stateMutability": "view",
      "type": "function"
    }
  ],
  "bytecode": "0x608060405234801561001057600080fd5b50611ee3806100206000396000f3fe6080604052600436106100e85760003560e01c806368f6c6191161008a578063c78f19f911610059578063c78f19f91461020d578063ddca3f4314610223578063f064c32e14610239578063fc0c546a1461024e57600080fd5b806368f6c619146101b4578063a4ee4dd7146101c7578063c23b139e146101da578063c4d66de8146101ed57600080fd5b8063202e3740116100c6578063202e37401461014c57806358eb2df5146101615780635f8fcdb114610174578063627024c81461018757600080fd5b80630f08efe0146100ed57806312e85585146101185780631c41759314610137575b600080fd5b3480156100f957600080fd5b50610102610286565b60405161010f9190611cfa565b60405180910390f35b34801561012457600080fd5b506036545b60405190815260200161010f565b61014a610145366004611bc0565b610441565b005b34801561015857600080fd5b506101026106e8565b61014a61016f366004611bc0565b6108e1565b61014a610182366004611b95565b610bd4565b34801561019357600080fd5b506101a76101a2366004611c14565b610d21565b60405161010f9190611db5565b61014a6101c2366004611bc0565b610db0565b61014a6101d5366004611bc0565b610fec565b61014a6101e8366004611b95565b61129d565b3480156101f957600080fd5b5061014a610208366004611b56565b611403565b34801561021957600080fd5b5061012960365481565b34801561022f57600080fd5b5061012960385481565b34801561024557600080fd5b50610102611545565b34801561025a57600080fd5b5060375461026e906001600160a01b031681565b6040516001600160a01b03909116815260200161010f565b6060600061029360335490565b905060006102a060345490565b6033546102ad9190611e21565b90506000808267ffffffffffffffff8111156102d957634e487b7160e01b600052604160045260246000fd5b60405190808252806020026020018201604052801561031257816020015b6102ff611b12565b8152602001906001900390816102f75790505b50905060005b84811015610438576000603981610330846001611dca565b81526020810191909152604001600020600401546001600160a01b03161415610426576000610360826001611dca565b600081815260396020908152604091829020825161010080820185528254825260018301546001600160a01b039081169483019490945260028301549482019490945260038201548316606082015260048201549092166080830152600581015460a0830152600681015460ff808216151560c0850152939004909216151560e08201528551929350909185908790811061040b57634e487b7160e01b600052603260045260246000fd5b6020908102919091010152610421600186611dca565b945050505b8061043081611e64565b915050610318565b50949350505050565b61044961173e565b600081116104725760405162461bcd60e51b815260040161046990611d7e565b60405180910390fd5b600034116104c25760405162461bcd60e51b815260206004820152601c60248201527f56616c7565206d757374206265206174206c65617374203120776569000000006044820152606401610469565b60008281526039602052604090819020600281015460069091015491516331a9108f60e11b8152600481018290529091610100900460ff16906001600160a01b03861690636352211e9060240160206040518083038186803b15801561052757600080fd5b505afa15801561053b573d6000803e3d6000fd5b505050506040513d601f19601f8201168201806040525081019061055f9190611b79565b6001600160a01b0316336001600160a01b0316146105ab5760405162461bcd60e51b81526020600482015260096024820152682727aa1027aba722a960b91b6044820152606401610469565b6001811515146105ef5760405162461bcd60e51b815260206004820152600f60248201526e0a6f2dac4ded840d2e64ee8408aa89608b1b6044820152606401610469565b6040516323b872dd60e01b81526001600160a01b038616906323b872dd9061061f90339030908790600401611cd6565b600060405180830381600087803b15801561063957600080fd5b505af115801561064d573d6000803e3d6000fd5b50506035546040516001600160a01b0390911692503480156108fc029250906000818181858888f1935050505015801561068b573d6000803e3d6000fd5b5060008481526039602052604090206003810180546001600160a01b03199081163317909155600482018054909116905560068101805460ff191690556005018390556106d86034611798565b50506106e360018055565b505050565b606060006106f560335490565b905060008060005b83811015610758573360396000610715846001611dca565b81526020810191909152604001600020600401546001600160a01b0316141561074657610743600184611dca565b92505b8061075081611e64565b9150506106fd565b5060008267ffffffffffffffff81111561078257634e487b7160e01b600052604160045260246000fd5b6040519080825280602002602001820160405280156107bb57816020015b6107a8611b12565b8152602001906001900390816107a05790505b50905060005b848110156104385733603960006107d9846001611dca565b81526020810191909152604001600020600401546001600160a01b031614156108cf576000610809826001611dca565b600081815260396020908152604091829020825161010080820185528254825260018301546001600160a01b039081169483019490945260028301549482019490945260038201548316606082015260048201549092166080830152600581015460a0830152600681015460ff808216151560c0850152939004909216151560e0820152855192935090918590879081106108b457634e487b7160e01b600052603260045260246000fd5b60209081029190910101526108ca600186611dca565b945050505b806108d981611e64565b9150506107c1565b6108e961173e565b600081116109095760405162461bcd60e51b815260040161046990611d7e565b600034116109595760405162461bcd60e51b815260206004820152601c60248201527f56616c7565206d757374206265206174206c65617374203120776569000000006044820152606401610469565b610967603380546001019055565b600061097260335490565b9050604051806101000160405280828152602001856001600160a01b03168152602001848152602001336001600160a01b0316815260200160006001600160a01b0316815260200183815260200160001515815260200160011515815250603960008381526020019081526020016000206000820151816000015560208201518160010160006101000a8154816001600160a01b0302191690836001600160a01b031602179055506040820151816002015560608201518160030160006101000a8154816001600160a01b0302191690836001600160a01b0316021790555060808201518160040160006101000a8154816001600160a01b0302191690836001600160a01b0316021790555060a0820151816005015560c08201518160060160006101000a81548160ff02191690831515021790555060e08201518160060160016101000a81548160ff021916908315150217905550905050836001600160a01b03166323b872dd3330866040518463ffffffff1660e01b8152600401610afb93929190611cd6565b600060405180830381600087803b158015610b1557600080fd5b505af1158015610b29573d6000803e3d6000fd5b50506035546040516001600160a01b0390911692503480156108fc029250906000818181858888f19350505050158015610b67573d6000803e3d6000fd5b506040805133815260006020820181905291810184905260608101919091526001608082015283906001600160a01b0386169083907fc99151f4453170a67bc7441775fde1a3bc3220c06645df1121e703aab5e7da5d9060a0015b60405180910390a4506106e360018055565b610bdc61173e565b600081815260396020526040902060058101546002820154600690920154909190610100900460ff168015610c435760405162461bcd60e51b815260206004820152600d60248201526c0a6f2dac4ded840d2e6408aa89609b1b6044820152606401610469565b600084815260396020526040902060030154603754610c71916001600160a01b0391821691339116866117ef565b6040516323b872dd60e01b81526001600160a01b038616906323b872dd90610ca190309033908790600401611cd6565b600060405180830381600087803b158015610cbb57600080fd5b505af1158015610ccf573d6000803e3d6000fd5b50505060008581526039602052604090206004810180546001600160a01b03191633179055600601805460ff1916600117905550610d11603480546001019055565b505050610d1d60018055565b5050565b610d29611b12565b50600090815260396020908152604091829020825161010080820185528254825260018301546001600160a01b039081169483019490945260028301549482019490945260038201548316606082015260048201549092166080830152600581015460a08301526006015460ff808216151560c0840152929004909116151560e082015290565b610db861173e565b60008111610dd85760405162461bcd60e51b815260040161046990611d7e565b60008281526039602052604090206002810154600690910154610100900460ff168015610e375760405162461bcd60e51b815260206004820152600d60248201526c0a6f2dac4ded840d2e6408aa89609b1b6044820152606401610469565b6040516331a9108f60e11b8152600481018390526001600160a01b03861690636352211e9060240160206040518083038186803b158015610e7757600080fd5b505afa158015610e8b573d6000803e3d6000fd5b505050506040513d601f19601f82011682018060405250810190610eaf9190611b79565b6001600160a01b0316336001600160a01b031614610efb5760405162461bcd60e51b81526020600482015260096024820152682727aa1027aba722a960b91b6044820152606401610469565b603554603854610f3e9133916001600160a01b0390911690606490610f209088611e02565b610f2a9190611de2565b6037546001600160a01b03169291906117ef565b6040516323b872dd60e01b81526001600160a01b038616906323b872dd90610f6e90339030908790600401611cd6565b600060405180830381600087803b158015610f8857600080fd5b505af1158015610f9c573d6000803e3d6000fd5b50505060008581526039602052604090206003810180546001600160a01b03199081163317909155600482018054909116905560068101805460ff19169055600501849055506106d86034611798565b610ff461173e565b600081116110145760405162461bcd60e51b815260040161046990611d7e565b6110536040518060400160405280601b81526020017f6372656174654d61726b65744974656d427948534e20707269636500000000008152508261184d565b611061603380546001019055565b600061106c60335490565b6040805161010080820183528382526001600160a01b0388811660208085018281528587018b81523360608801818152600060808a0181815260a08b018f815260c08c0183815260e08d018481528f85526039909952928d90209b518c55955160018c0180546001600160a01b0319908116928c16929092179055945160028c0155915160038b0180548616918a1691909117905590516004808b0180549095169190981617909255915160058801555160069096018054925161ffff1990931696151561ff001916969096179115159094021790935592516323b872dd60e01b815293945090926323b872dd9261116992913091899101611cd6565b600060405180830381600087803b15801561118357600080fd5b505af1158015611197573d6000803e3d6000fd5b50506037546038546001600160a01b0390911692506323b872dd9150339030906064906111c49088611e02565b6111ce9190611de2565b6040518463ffffffff1660e01b81526004016111ec93929190611cd6565b602060405180830381600087803b15801561120657600080fd5b505af115801561121a573d6000803e3d6000fd5b505050506040513d601f19601f8201168201806040525081019061123e9190611bf4565b506040805133815260006020820181905291810184905260608101829052608081019190915283906001600160a01b0386169083907fc99151f4453170a67bc7441775fde1a3bc3220c06645df1121e703aab5e7da5d9060a001610bc2565b6112a561173e565b600081815260396020526040902060058101546002820154600690920154909190610100900460ff1634831115611346576040805162461bcd60e51b81526020600482015260248101919091527f506c65617365207375626d6974207468652061736b696e67207072696365206960448201527f6e206f7264657220746f20636f6d706c657465207468652070757263686173656064820152608401610469565b60018115151461138a5760405162461bcd60e51b815260206004820152600f60248201526e0a6f2dac4ded840d2e64ee8408aa89608b1b6044820152606401610469565b6000848152603960205260408082206003015490516001600160a01b03909116913480156108fc02929091818181858888f193505050501580156113d2573d6000803e3d6000fd5b506040516323b872dd60e01b81526001600160a01b038616906323b872dd90610ca190309033908790600401611cd6565b600054610100900460ff16158080156114235750600054600160ff909116105b8061143d5750303b15801561143d575060005460ff166001145b6114a05760405162461bcd60e51b815260206004820152602e60248201527f496e697469616c697a61626c653a20636f6e747261637420697320616c72656160448201526d191e481a5b9a5d1a585b1a5e995960921b6064820152608401610469565b6000805460ff1916600117905580156114c3576000805461ff0019166101001790555b60358054336001600160a01b0319918216179091556658d15e176280006036556001603855603780549091166001600160a01b0384161790558015610d1d576000805461ff0019169055604051600181527f7f26b83ff96e1f2b6a682f133852f6798a09c465da95921460cefb38474024989060200160405180910390a15050565b6060600061155260335490565b905060008060005b838110156115b5573360396000611572846001611dca565b81526020810191909152604001600020600301546001600160a01b031614156115a3576115a0600184611dca565b92505b806115ad81611e64565b91505061155a565b5060008267ffffffffffffffff8111156115df57634e487b7160e01b600052604160045260246000fd5b60405190808252806020026020018201604052801561161857816020015b611605611b12565b8152602001906001900390816115fd5790505b50905060005b84811015610438573360396000611636846001611dca565b81526020810191909152604001600020600301546001600160a01b0316141561172c576000611666826001611dca565b600081815260396020908152604091829020825161010080820185528254825260018301546001600160a01b039081169483019490945260028301549482019490945260038201548316606082015260048201549092166080830152600581015460a0830152600681015460ff808216151560c0850152939004909216151560e08201528551929350909185908790811061171157634e487b7160e01b600052603260045260246000fd5b6020908102919091010152611727600186611dca565b945050505b8061173681611e64565b91505061161e565b600260015414156117915760405162461bcd60e51b815260206004820152601f60248201527f5265656e7472616e637947756172643a207265656e7472616e742063616c6c006044820152606401610469565b6002600155565b8054806117e75760405162461bcd60e51b815260206004820152601b60248201527f436f756e7465723a2064656372656d656e74206f766572666c6f7700000000006044820152606401610469565b600019019055565b611847846323b872dd60e01b85858560405160240161181093929190611cd6565b60408051601f198184030181529190526020810180516001600160e01b03166001600160e01b031990931692909217909152611892565b50505050565b610d1d8282604051602401611863929190611d5c565b60408051601f198184030181529190526020810180516001600160e01b0316632d839cb360e21b179052611964565b60006118e7826040518060400160405280602081526020017f5361666545524332303a206c6f772d6c6576656c2063616c6c206661696c6564815250856001600160a01b03166119859092919063ffffffff16565b8051909150156106e357808060200190518101906119059190611bf4565b6106e35760405162461bcd60e51b815260206004820152602a60248201527f5361666545524332303a204552433230206f7065726174696f6e20646964206e6044820152691bdd081cdd58d8d9595960b21b6064820152608401610469565b80516a636f6e736f6c652e6c6f67602083016000808483855afa5050505050565b6060611994848460008561199c565b949350505050565b6060824710156119fd5760405162461bcd60e51b815260206004820152602660248201527f416464726573733a20696e73756666696369656e742062616c616e636520666f6044820152651c8818d85b1b60d21b6064820152608401610469565b600080866001600160a01b03168587604051611a199190611cba565b60006040518083038185875af1925050503d8060008114611a56576040519150601f19603f3d011682016040523d82523d6000602084013e611a5b565b606091505b5091509150611a6c87838387611a77565b979650505050505050565b60608315611ae3578251611adc576001600160a01b0385163b611adc5760405162461bcd60e51b815260206004820152601d60248201527f416464726573733a2063616c6c20746f206e6f6e2d636f6e74726163740000006044820152606401610469565b5081611994565b6119948383815115611af85781518083602001fd5b8060405162461bcd60e51b81526004016104699190611d49565b6040805161010081018252600080825260208201819052918101829052606081018290526080810182905260a0810182905260c0810182905260e081019190915290565b600060208284031215611b67578081fd5b8135611b7281611e95565b9392505050565b600060208284031215611b8a578081fd5b8151611b7281611e95565b60008060408385031215611ba7578081fd5b8235611bb281611e95565b946020939093013593505050565b600080600060608486031215611bd4578081fd5b8335611bdf81611e95565b95602085013595506040909401359392505050565b600060208284031215611c05578081fd5b81518015158114611b72578182fd5b600060208284031215611c25578081fd5b5035919050565b60008151808452611c44816020860160208601611e38565b601f01601f19169290920160200192915050565b80518252602081015160018060a01b03808216602085015260408301516040850152806060840151166060850152806080840151166080850152505060a081015160a083015260c0810151151560c083015260e0810151151560e08301525050565b60008251611ccc818460208701611e38565b9190910192915050565b6001600160a01b039384168152919092166020820152604081019190915260600190565b6020808252825182820181905260009190848201906040850190845b81811015611d3d57611d29838551611c58565b928401926101009290920191600101611d16565b50909695505050505050565b602081526000611b726020830184611c2c565b604081526000611d6f6040830185611c2c565b90508260208301529392505050565b6020808252601c908201527f5072696365206d757374206265206174206c6561737420312077656900000000604082015260600190565b6101008101611dc48284611c58565b92915050565b60008219821115611ddd57611ddd611e7f565b500190565b600082611dfd57634e487b7160e01b81526012600452602481fd5b500490565b6000816000190483118215151615611e1c57611e1c611e7f565b500290565b600082821015611e3357611e33611e7f565b500390565b60005b83811015611e53578181015183820152602001611e3b565b838111156118475750506000910152565b6000600019821415611e7857611e78611e7f565b5060010190565b634e487b7160e01b600052601160045260246000fd5b6001600160a01b0381168114611eaa57600080fd5b5056fea264697066735822122083bcee9f340b50d8cdcbe3ef1012db3bec8d0f3672bfbdeda564e0854721613a64736f6c63430008040033",
  "linkReferences": {},
  "deployedLinkReferences": {}
}